{
  "contractName": "SkvToken",
  "abi": [
    {
      "inputs": [],
      "payable": false,
      "stateMutability": "nonpayable",
      "type": "constructor"
    },
    {
      "constant": true,
      "inputs": [],
      "name": "totalSupply",
      "outputs": [
        {
          "internalType": "uint256",
          "name": "",
          "type": "uint256"
        }
      ],
      "payable": false,
      "stateMutability": "view",
      "type": "function"
    }
  ],
  "bytecode": "0x6080604052348015600f57600080fd5b50620186a06000819055506084806100286000396000f3fe6080604052348015600f57600080fd5b506004361060285760003560e01c806318160ddd14602d575b600080fd5b60336049565b6040518082815260200191505060405180910390f35b6000548156fea265627a7a72315820c5491286e27bc42b4083d59c8b5f8c73214935b85b52bccd83a0f74e24a9940664736f6c63430005100032",
  "source": "pragma solidity >=0.4.21 <0.7.0;\n\ncontract SkvToken{\n\t\n\tuint256 public totalSupply;\n\t\n\t//constuctor\n\tconstructor() public{\n\t\t\n\t\ttotalSupply = 100000;//state variable\n\n\t}\n\n\t//set the total number of tokens\n\n\n\t//to read the total number of tokens\n}\n",
  "sourcePath": "/home/sauravskv/Desktop/blockchain/token_sale/contracts/SkvToken.sol",
  "compiler": {
    "name": "solc",
    "version": "0.5.16+commit.9c3226ce.Emscripten.clang"
  },
  "schemaVersion": "3.1.0",
  "updatedAt": "2020-04-30T01:59:21.887Z",
  "networkType": "ethereum",
  "devdoc": {
    "methods": {}
  },
  "userdoc": {
    "methods": {}
  }
}